:10000000005000205901000061010000650100005E
:10001000D9010000DD010000250200000000000001
:100020000000000000000000000000006D02000061
:1000300071020000000000007502000011050000C0
:100040008902000000B583B000F036FA304B314A27
:100050001360314A1360314B314A03E01168196073
:10006000043304322F498B42F8D32A4B1A682E4BA3
:100070009A4204D1284B1A682C4B9A4200D0FEE7D2
:10008000234B2B4A13602B4A13602B4B02E00022B8
:100090001A600433294A9342F9D3254B1B6813B9DC
:1000A000244B1B6803B1FEE700F012FA694601A871
:1000B00000F024F9224C234B1C1BA410002504E063
:1000C0001F4B53F8253098470135AC42F8DC1E4CE5
:1000D0001E4B1C1BA410002504E01B4B53F82530BD
:1000E00098470135AC42F8DC0099019800F004FA19
:1000F0000546174C174B1C1BA41004E0013C144B85
:1001000053F824309847002CF8DC284600F0D2F849
:10011000BABADECA000000207400002000000020EF
:100120002C0F000078000020785634123254769854
:100130007800002014010020780000201801002021
:10014000B4020000B4020000B4020000B4020000D7
:10015000B4020000B402000008B5FFF773FF00BF4F
:1001600000BEFEE71EF0040F0CBFEFF30880EFF3B4
:1001700009807146414A10472DE9F04182B004469A
:100180008846134B5E6B9F6B9D6A1B6B13F0020FCF
:100190000DD00F4BDB6A002B09DA4BF6AB6100F098
:1001A0007BF920B14FF00042094BDA620CE00948BC
:1001B00000F0E2F8CDF800803B4632462946204662
:1001C00000F0F2F800BEFEE702B0BDE8F08100BF2B
:1001D00000ED00E0C80E000000BEFEE71EF0040FB8
:1001E0000CBFEFF30880EFF309807146244A1047F3
:1001F0002DE9F04182B004468846084B5E6B9F6B48
:100200009D6A074800F0B8F8CDF800803B463246BA
:100210002946204600F0C8F800BEFEE700ED00E0E9
:10022000D80E00001EF0040F0CBFEFF30880EFF3B0
:1002300009807146134A10472DE9F04182B0044607
:100240008846084B5E6B9F6B9D6A074800F094F8E8
:10025000CDF800803B4632462946204600F0A4F8FF
:1002600000BEFEE700ED00E0E40E000000BEFEE789
:1002700000BEFEE700BEFEE7704700007901000007
:0C028000F101000039020000FEE700BFA1
:10028C002C0F000000000020780000202C0F000034
:10029C000000001000000010780000201801002061
:0802AC0000000010000000102A
:1002B400FEE700BF08B50D4B1B6813B90C4A0B4B86
:1002C4001A600A4B1A68C31C23F003031344094938
:1002D4008B4206D900F01EF90C2303604FF0FF3067
:1002E40008BD02490B60104608BD00BF7C00002019
:1002F40018010020004C002001230360014B0B6017
:10030400704700BF040000202DE9F04385B0044687
:100314000F46435613BB042528462146ABBE04466C
:100324001FE03546102E28BF1025002306E014F9DF
:10033400011B04AA1A4402F8101C0133AB42F6D381
:1003440004AA1344002203F8102CE9464FF00408D1
:1003540040464946ABBE8046761B00E00E46002E62
:10036400DFD1384605B0BDE8F08300BF08B5FFF71C
:10037400CBFF08BD0FB400B583B004AB53F8042B16
:1003840001938021064800F001F9002803DD0146AD
:100394000348FFF7EBFF03B05DF804EB04B07047CC
:1003A40084000020F8B504460D4617461E4626482C
:1003B400FFF7E0FF21682548FFF7DCFF6168244868
:1003C400FFF7D8FFA1682348FFF7D4FFE16822486C
:1003D400FFF7D0FF21692148FFF7CCFF616920486E
:1003E400FFF7C8FFA1691F48FFF7C4FFE1691E4872
:1003F400FFF7C0FF1D48FFF7BDFF29461C48FFF764
:10040400B9FF1C4CE16A1C48FFF7B4FF216B1B4881
:10041400FFF7B0FFE16B1A48FFF7ACFF15F0800F50
:1004240003D039461748FFF7A5FF15F4004F03D052
:1004340031461548FFF79EFF1448FFF79BFF0699C6
:100444001348FFF797FFF8BDAC0D0000BC0D00008A
:10045400CC0D0000DC0D0000EC0D0000FC0D0000D4
:100464000C0E00001C0E00002C0E00003C0E0000C0
:10047400480E000000ED00E0580E0000680E000079
:10048400780E0000880E0000980E0000A80E0000F0
:10049400B00E000083691A888A4207D10268033AC1
:1004A400012A05D802338361012070470020704778
:1004B4000020704708B500F015F8024B024A9A6014
:1004C40008BD00BF00ED00E00000000008B500F02A
:1004D40001F808BD014A024B1A60704700127A0005
:1004E4000C000020014A024B1A60704700127A0087
:1004F4000C000020704700BF034B1B681BB1024A6D
:100504001368013B136070471001002008B5FFF722
:10051400F3FF08BD014B1868704700BF700000204E
:1005240010B5431E0A44914204D011F8014B03F85C
:10053400014FF8E710BD30B5141E05469BB01846B0
:1005440004DA8B232B604FF0FF301DE04FF402736D
:10055400ADF80C300CBF234604F1FF33029305932E
:100564004FF6FF7300910491ADF80E3002461E9BC6
:100574006946284600F072F8431CBCBF8B232B60ED
:1005840014B1009B00221A701BB030BD07B5009354
:1005940013460A46014603480068FFF7CCFF03B040
:1005A4005DF804FB700000202DE9F0478E68824658
:1005B4009E420C46914698463ED88A8912F4906F22
:1005C4003AD02568096902236F1A656905EB450568
:1005D40095FBF3F57B1C43449D4238BF1D465305F0
:1005E4000FD5294600F040FB064698B13A462169EA
:1005F400FFF796FFA38923F4906343F08003A3815C
:1006040013E02A4600F08EFB064670B92169504675
:1006140000F0DEFA0C23CAF80030A3894FF0FF3053
:1006240043F04003A381BDE8F08726613E44266081
:1006340046466561ED1BA560464528BF46464946CA
:100644003246206800F0A8FAA36800209B1BA36030
:1006540023681E442660BDE8F08700002DE9F04FB2
:100664009DB003938B8980461C060D4616460DD516
:100674000B695BB9402100F0F7FA2860286118B9CA
:100684000C23C8F80030CDE040236B6100230993AC
:1006940020238DF82930DFF89CB130238DF82A30DF
:1006A40037463C4614F8013B1BB9B7EB060910D09A
:1006B40003E0252BF9D02746F3E74B46324629467B
:1006C4004046FFF771FF013000F0A780099B4B44BF
:1006D40009933B78002B00F0A08000234FF0FF32F9
:1006E40004930793059206938DF853301A930126C9
:1006F400052221784E4800F041FA671C049B38B16A
:100704004B4A3C46801A06FA00F018430490EFE77F
:10071400D90644BF20228DF853201A0744BF2B2248
:100724008DF8532022782A2A03D0079A00210A2020
:100734000BE0039A111D12680391002A10DA524249
:1007440043F00200079204900BE027463B78013403
:10075400303B092B03D800FB02320121F5E701B13C
:1007640007923B782E2B1ED17B782A2B0AD1039B30
:1007740002371A1D1B680392002BB8BF4FF0FF33DA
:10078400059310E0002319460593781C0A240746B4
:100794003A780130303A092A03D804FB01210123B5
:1007A400F5E703B1059103223978224800F0E6F910
:1007B40040B14023CBEB000003FA00F0049B013767
:1007C40018430490397806221B487E1C8DF82810A3
:1007D40000F0D4F988B1194B33B9039B073323F0E4
:1007E40007030833039314E003AB00932A46144B26
:1007F40004A94046AFF3008007E003AB00932A4608
:100804000F4B04A9404600F093F8B0F1FF3F824635
:1008140003D0099B5344099342E7AB895B0601D497
:10082400099801E04FF0FF301DB0BDE8F08F00BF24
:10083400F60E0000FC0E0000000F00000000000097
:10084400AD0500002DE9F04791461F460A698B6803
:1008540006469342B8BF1346C9F8003091F84320C6
:100864000C46DDF8208012B10133C9F8003023684A
:10087400990642BFD9F800300233C9F80030256820
:1008840015F0060510D104F1190A07E001235246B8
:1008940039463046C04701301AD00135E368D9F8EB
:1008A40000209B1A9D42F1DB94F843302268003308
:1008B40018BF012392060FD5E118302081F84300B8
:1008C4005A1C94F845102244023382F8431003E082
:1008D4004FF0FF30BDE8F08704F14302394630465B
:1008E400C0470130F4D02268D9F80050E36802F020
:1008F4000602042A08BF5D1B2269A3680CBF25EA0F
:10090400E57500259342C4BF9B1AED184FF000090A
:100914001A344D4509D00123224639463046C04792
:100924000130D5D009F10109F3E70020BDE8F087D3
:100934002DE9F04317460A7E85B06E2A984606468E
:100944000C460C9B01F1430E00F0AE8011D8632AD3
:1009540022D009D8002A00F0BB80582A40F0CA806F
:1009640081F84520834955E0642A1ED0692A1CD0A9
:10097400C0E0732A00F0B08009D86F2A2ED0702A04
:1009840040F0B8800A6842F020020A603EE0752A0E
:1009940024D0782A3AD0ADE01A6801F14205111D3D
:1009A4001960136884F84230A8E021681A6811F0CD
:1009B400800F02D0111D196008E011F0400F02F100
:1009C4000401196002D0B2F9003000E01368002B72
:1009D4003CDA2D225B4284F8432037E021681A6810
:1009E40011F0800F02D0111D196007E011F0400FC3
:1009F40002F10401196001D0138800E01368227E1B
:100A04005C496F2A14BF0A2208221BE078225A4943
:100A140084F845202268186812F0800F00F104055C
:100A24001D6003D1550601D5038800E00368D00793
:100A340044BF42F0200222601BB9226822F0200247
:100A440022601022002084F8430001E049490A2270
:100A54006568002DA56008DB206820F00400206094
:100A64002BB9002D7DD175460CE0002B79D075464D
:100A7400B3FBF2F002FB1033CB5C05F8013D0346F7
:100A84000028F5D1082A0BD12368DA0708D5236991
:100A940062689A42DEBF302305F8013C05F1FF3558
:100AA400C5EB0E0323612EE008681A6810F0800F6E
:100AB400496903D0101D1860136808E010F0400F56
:100AC40002F104001860136801D0198000E0196075
:100AD40000232361754616E01A68111D1960156814
:100AE40000216268284600F049F808B1401B6060A4
:100AF400636804E004F1420584F842200123236181
:100B0400002384F84330CDF800803B4603AA2146F5
:100B14003046FFF797FE013002D14FF0FF3026E058
:100B240023692A4639463046C0470130F5D0236848
:100B34009B0710D5002504F1190907E001234A4653
:100B440039463046C0470130E7D00135E368039A9F
:100B54009B1A9D42F2DBE068039B9842B8BF18469B
:100B640005E00B7804F1420584F842308AE705B0C9
:100B7400BDE8F083070F0000180F000010B5C9B2DC
:100B840002449042034605D01C7801308C42F8D1CF
:100B9400184610BD002010BD884210B501EB0203B9
:100BA40001D8421E0BE09842FBD28118D21AD342DC
:100BB40004D013F8014D01F8014DF8E710BD994236
:100BC40004D011F8014B02F8014FF8E710BD000002
:100BD40038B50546002944D051F8043C0C1F002BBD
:100BE400B8BFE41800F0D4F81E4A1368114613B9CC
:100BF4006360146030E0A3420DD92268A0188342D8
:100C040001BF18685B681218226063600C6023E0FF
:100C1400A24203D813465A68002AF9D11868191851
:100C2400A1420BD12168014458188242196013D1A2
:100C340010685268014419605A600DE002D90C230F
:100C44002B6009E021686018824201BF1068526875
:100C54000918216062605C602846BDE8384000F0F5
:100C640098B838BD0801002070B5CD1C25F00305E7
:100C740008350C2D38BF0C25002D064601DBA94292
:100C840002D90C23336046E000F082F8234B1C6841
:100C94001A462146A1B10B685B1B0ED40B2B03D95A
:100CA4000B60CC18CD501EE08C420BBF63684B68C0
:100CB4001360636018BF0C4615E00C464968E9E709
:100CC400174C23681BB9304600F052F820602946BF
:100CD400304600F04DF8431C18D0C41C24F0030423
:100CE400A0420DD12560304600F053F804F10B000A
:100CF400231D20F00700C31A0ED05A42E25070BDE3
:100D0400211A304600F034F80130EBD10C23336063
:100D1400304600F03EF8002070BD00BF08010020FE
:100D240004010020F8B5074615460E4621B91146C0
:100D3400BDE8F840FFF798BF1AB9FFF749FF284606
:100D4400F8BD00F027F885420ED929463846FFF74A
:100D54008BFF044650B131462A46FFF7E1FB31468A
:100D64003846FFF735FF01E03046F8BD2046F8BDB0
:100D740038B5064C0023054608462360FFF79AFA67
:100D8400431C02D1236803B12B6038BD0C01002041
:100D94007047704751F8040C0028BEBF091851F879
:100DA400043CC01804387047537461636B20667246
:100DB400616D653A0A000000205230203D20202554
:100DC4003038580A00000000205231203D202025F0
:100DD4003038580A00000000205232203D202025DF
:100DE4003038580A00000000205233203D202025CE
:100DF4003038580A0000000020523132203D2025AE
:100E04003038580A00000000204C52203D20202594
:100E14003038580A00000000205043203D2020258F
:100E24003038580A0000000020505352203D20253D
:100E34003038580A000000004653522F4641523AB7
:100E44000A0000002043465352203D20202530381C
:100E5400580A00002048465352203D2020253038AF
:100E6400580A00002044465352203D2020253038A3
:100E7400580A00002041465352203D202025303896
:100E8400580A0000204D4D464152203D202530385F
:100E9400580A00002042464152203D202025303887
:100EA400580A00004D6973630A000000204C522F59
:100EB4004558435F52455455524E3D2025303858CD
:100EC4000A0000005B486172644661756C745D0AD7
:100ED400000000005B4275734661756C745D0A0026
:100EE4005B55736167654661756C745D0A0000004B
:100EF4004300232D302B2000686C4C006566674549
:100F0400464700303132333435363738394142437D
:100F1400444546003031323334353637383961622E
:050F2400636465660036
:100F2C0078563412800000200000000000127A0075
:100F3C0000000000000000000000000000000000A5
:100F4C000000000000000000000000000000000095
:100F5C00F40E000000000000000000000000000083
:100F6C000000000000000000000000000000000075
:100F7C000000000000000000000000000000000065
:100F8C000000000000000000000000000000000055
:080F9C00100000203254769889
:0400000300000045B4
:00000001FF
