:020000040800F2
:10000000008000201D0100085D0100085D0100085E
:100010005D0100085D0100085D01000800000000AE
:100020000000000000000000000000005D0100086A
:100030005D010008000000005D0100085D0100088E
:100040005D0100085D0100085D010008000000007E
:10005000000000005D0100085D0100085D0100086E
:100060005D010008000000005D0100085D0100085E
:100070005D010008000000005D0100085D0100084E
:100080005D0100085D010008000000005D0100083E
:100090005D010008000000000000000000000000FA
:1000A0000000000000000000000000005D010008EA
:1000B0005D0100085D0100085D0100085D010008A8
:1000C00010B5054C237833B9044B13B10448AFF392
:1000D00000800123237010BD4004002000000000B8
:1000E00038030008084B10B51BB108490848AFF3A6
:1000F00000800848036803B910BD074B002BFBD0F4
:10010000BDE81040184700BF000000004404002074
:10011000380300083C040020000000000A490B4A94
:100120000B4B9A42BEBF51F8040B42F8040BF8E7A0
:100130000849094A00209142BCBF41F8040BFAE784
:1001400000F056F800F0F0E83C0300080000002042
:1001500040040020400400205C040020FEE700BFB3
:100160001F4BDB6803F002021E4B1F49002A18BF19
:100170000B461B4AD26812F0010F18BF5B08184AE1
:10018000D26812F0040F05D0154A5268C2F3032258
:1001900002FB0333124AD268C2F30122012A07D0BC
:1001A00012B1022A11D015E00E4A104B1A607047A6
:1001B0000B4AD268120912F0080F03D002F00702AE
:1001C0000132D340094A136070474FF40042074B95
:1001D0001A60704749F64042044B1A60704700BFEE
:1001E0000000024000127A000024F4000000002009
:1001F00008B54FF00062094B9A60094B1032DA6182
:10020000DA680022DA6059685A6099689A60196958
:100210001A6159695A61FFF7A3FF08BD00ED00E0BC
:1002200000000240024B13B1024800F005B87047CD
:100230000000000045020008002301461A46184647
:1002400000F014B838B5074D074C2C1BA41005D08E
:10025000013C55F8043D9847002CF9D1BDE83840E1
:1002600000F05CB83C040020380400202DE9F04781
:10027000254C064625688846D5F848419246994659
:10028000C4B360681F2817DC411C76B104EB8003FF
:10029000C3F888A0D4F88851012282401543022E69
:1002A000C4F88851C3F808911ED0831C61600020F7
:1002B00044F82380BDE8F087144B03B34FF4C870B3
:1002C000AFF300800446D0B1D5F84831002784E868
:1002D00088003846C5F848410121C4F88871C4F83F
:1002E0008C71002EE1D0D1E7D4F88C311A43C4F8D8
:1002F0008C21DAE705F5A674C5F84841C1E74FF04F
:10030000FF30BDE8F08700BF3403000800000000A4
:10031000F8B500BFF8BC08BC9E467047F8B500BFF2
:10032000F8BC08BC9E46704704F01FE500000000C2
:0C03300043000000080000200000000056
:10033C0000127A000000000000000000F40200200F
:10034C005C030020C403002000000000000000003B
:10035C000000000000000000000000000000000091
:10036C000000000000000000000000003003000846
:10037C000000000000000000000000000000000071
:10038C000000000000000000000000000000000061
:10039C000000000000000000000000000000000051
:1003AC000000000000000000000000000000000041
:1003BC000000000000000000000000000000000031
:1003CC000000000000000000000000000000000021
:1003DC000000000000000000000000000000000011
:1003EC0001000000000000000E33CDAB34126DE6AE
:1003FC00ECDE05000B000000000000000000000017
:10040C0000000000000000000000000000000000E0
:10041C0000000000000000000000000000000000D0
:10042C0000000000000000000000000000000000C0
:10043C0000000000000000000000000000000000B0
:10076C0025020008E5000008C10000080000000098
:040000050800011DD1
:00000001FF
